:100000002FC0A1C775C79FC79EC79DC79CC79BC769
:100010009AC799C798C797C796C795C794C793C7F4
:1000200092C791C790C78FC78EC78DC78CC78BC724
:100030008AC789C73F003F24000F503F243F4880B4
:100040003F483F7F000F743F7F3F82803F823F8366
:100050000008F93F833F85000FAB3F853F86800056
:1000600011241FBECFEFCDBFDFE3DEBFE4E3F0E03E
:1000700040E017C0B591A59135912591059107FDF7
:100080000CC095918591EF01F92FE82F05900D9205
:10009000A217B307D9F7FE0104C01D92A217B30738
:1000A000E1F7EF35F40731F769D1E5C6F894FFCFF2
:1000B000CF93DF93CDB7DEB7A797CDBFDEBF6FE598
:1000C00084E2E1D467E086E2DED46FEF8DE1DBD439
:1000D00063E780E5D8D46FEF8DE1D5D460E08CE3A1
:1000E000D2D46FE381E2CFD463E082E2CCD460E289
:1000F00081E3C9D460E282E3C6D460E283E3C3D47F
:1001000060E284E3C0D460E285E3BDD460E286E3CC
:10011000BAD463E083E2B7D46CE485E2B4D460E798
:1001200087E2B1D482EE898361E070E0CE0101966E
:10013000FCD481EE8A8361E070E0CE010296F5D4B2
:100140006CE080E2A0D46FEF80E29DD46EE080E2AC
:100150009AD46FEF86E097D463E086E294D461E0AE
:1001600081E391D461E082E38ED461E083E38BD4B8
:1001700061E084E388D461E085E385D461E086E3CF
:1001800082D486E0ECEAF8E8DE01139601900D9245
:100190008A95E1F766E070E0CE010396C6D486E06A
:1001A000E2EBF8E8DE01199601900D928A95E1F7ED
:1001B00066E070E0CE010996B8D486E0E8EBF8E896
:1001C000DE011F9601900D928A95E1F766E070E0DE
:1001D000CE010F96AAD46FEF82E055D463E082E29D
:1001E00052D468E385E24FD46FE080E24CD460E7FC
:1001F00087E249D46FEF82E046D462E082E243D4E2
:100200008FEF8D8B61E070E0CE0145968ED486E055
:10021000EEEBF8E8DE01569601900D928A95E1F733
:1002200066E070E0CE01469680D486E0E4ECF8E823
:10023000DE015C9601900D928A95E1F766E070E030
:10024000CE014C9672D46FEF8CE01DD46FEF8DE031
:100250001AD46FEF8EE017D46FEF8FE014D486E0DE
:10026000EAECF8E8DE01929601900D928A95E1F7AA
:1002700066E070E0CE01829658D46FEF81E103D43E
:100280006FEF82E100D46FEF83E1FDD36FEF84E184
:10029000FAD36FEF85E1F7D36FEF86E1F4D36FEF19
:1002A00081E0F1D36FEF82E0EED36FEF85E0EBD327
:1002B0006FEF86E0E8D36FEF80E0E5D36FEF8CE17E
:1002C000E2D36FEF8DE1DFD36FEF86E0DCD36FEF2A
:1002D00081E0D9D36FEF80E0D6D36FEF86E0D3D340
:1002E0006FEF88E0D0D36FEF85E0CDD36FEF86E07E
:1002F000CAD36FEF86E0C7D36FEF86E0C4D36FEF4A
:1003000081E0C1D36FEF80E0BED36FEF83E0BBD35A
:100310006FEF84E0B8D36FEF88E0B5D36FEF8DE176
:10032000B2D36FEF8CE1AFD36FEF81E0ACD36FEF5F
:1003300080E0A9D366E070E0CE018296F6D36FEF3D
:1003400082E0A1D366E070E0CE014696EED366E08F
:1003500070E0CE014C96E9D36FEF8CE094D36FEF51
:100360008DE091D36FEF8EE08ED36FEF8FE08BD364
:0C037000A796CDBFDEBFDF91CF910895AE
:10037C006DD58091833F39D28FE493EC0197F1F7DF
:10038C0000C0000046D49FE7EAE1F6E09150E0405F
:10039C00F040E1F700C000005DD460ED78E885EE38
:1003AC0098E8A5D2C5E0D4E06894FF24F4F8BF2CFB
:1003BC006894EE24E5F88824839406E214E06894AB
:1003CC00992493F86894AA24A2F80F2EF6E0CF2E65
:1003DC00F4E0DF2EF02D6894772477F82FE78AE18C
:1003EC0096E0215080409040E1F700C00000EFE023
:1003FC00F7E23197F1F700C00000B882E8828FE491
:10040C0093EC0197F1F700C000004CDEF882E7E8AE
:10041C00F3E13197F1F700C000008FD28093853F54
:10042C00509B0DC047D460ED78E885EE98E85FD21C
:10043C008092843F10927F3F1092803F0BD480912A
:10044C00843F8330C9F028F4813041F0823071F060
:10045C001EC08430B1F08530C1F019C0F601708235
:10046C00F801E082F0829082A08211C0F801E08253
:10047C00F0829082A0820BC0F801F0829082A08260
:10048C0006C0F8019082A08202C0F801A08280917F
:10049C00843F863008F06AC0FFE72AE186E0F1501D
:1004AC0020408040E1F700C000008091853F8530FE
:1004BC0051F4F0D360917F3F7091803F8CE59FE3C6
:1004CC002BD1C8D38BCF813051F4D4D360917F3FE3
:1004DC007091803F8CE59FE31FD1BCD37FCF8531DA
:1004EC0051F4D8D360917F3F7091803F8CE59FE3AE
:1004FC0013D1B0D373CF813139F4BCD38091843F05
:10050C008F5F8093843F6ACF833171F4B3D3609152
:10051C007F3F7091803F8CE59FE3FED08091843FBC
:10052C008F5F8093843F5ACF853249F4B3D3609167
:10053C007F3F7091803F8CE59FE3EED04FCF8132AF
:10054C0049F498D360917F3F7091803F8CE59FE395
:10055C00E3D044CF833209F041CF8CD360917F3FFD
:10056C007091803F8CE59FE3D7D038CF93D36CE567
:10057C007FE388E49FE3BBD16DD39FEFE8E0FDE31D
:0E058C009150E040F040E1F700C0000027CFA2
:10059A00E7E4FFE380818E7F80838091433F9091DF
:1005AA00443F019711F499D401C091D4E4E2FFE3E6
:1005BA00878D90A10197878F90A3892B69F0A58DCC
:1005CA00B68D809118088C93858D968D0196858FAE
:1005DA00968F6BD484E00895A4E2BFE35D96ED9113
:1005EA00FC915E978091180880835D968D919C910D
:1005FA005E9701965D968D939C935E97E7E4FFE381
:10060A00808188608083ED91FC9111971C968D9171
:10061A009C911D9709958250823018F45ED488E027
:06062A000895B0D308950D
:10063000CF93DF930CD2C0E0D4E08AEB8883A0E2B2
:10064000B4E08CE38C93E0E4F4E088E080831C82E7
:1006500014961C9214971482188A198A1A8A1B8A73
:100660001C8A1D8A1E8A1F8A50961C92509751968A
:100670001C92519752961C92529753961C925397E4
:1006800054961C92549755961C92559756961C92C8
:10069000569757961C92108A118A128A138A148AC6
:1006A000158A168A178AE0E0F2E01082118212821F
:0806B0001382DF91CF91089540
:1006B80021D48823B1F0A4E2BFE31696ED91FC9112
:1006C800179752968D919C9153970995823019F0FE
:1006D800833019F004C01DD3089528D3089593D307
:1006E8000895E7E4FFE3808188608083A4E2BFE3A4
:1006F800ED91FC9111971C968D919C911D970995F0
:10070800833031F0843031F0823031F402D30895EF
:0C0718000DD3089538D0089576D30895CD
:100724001F93CF93DF93FC019B0177232CF4319526
:10073400219531091DE201C010E2CAE0D0E0C901EF
:10074400BE0135D2482F8FE5808380E2868380E521
:10075400878384E5808783E581878AE3828713879B
:10076400C901841B910964E670E021D2BE011FD245
:10077400605D6487405D45878091843F8F5F80938F
:0A078400843FDF91CF911F9108958B
:10078E00B6D38823B1F0A4E2BFE31696ED91FC91A7
:10079E00179752968D919C9153970995823019F027
:1007AE00833019F004C0B2D20895BDD2089528D373
:1007BE000895E7E4FFE380818E7F8083E4E2FFE328
:1007CE00A58DB68DCD010196858F968F8C918093D8
:1007DE001808878D90A10197878F90A3892B11F40C
:0807EE0085E0089583E0089501
:1007F6009091473F92FD2CC0E4E2FFE3848FA7E48B
:10080600BFE3892F887F9EE091A324EF31E0228FFA
:10081600338F846088608C9389E997E08083918325
:10082600148615868283938316861786848395831A
:10083600108A118A86839783128A138A8BE997E036
:1008460080879187148A158AF2D21FD380E0089593
:0408560081E00895A0
:10085A00CF93DF9318D38091473F80FF06C049D3D7
:10086A00882319F08FE08093453F19D3882319F024
:10087A0080E18093453F0DD3882319F081E180936D
:10088A00453FC4E2DFE3E9A1F0E0EE0FFF1FE050CD
:10089A00F14C0190F081E02D099589A3DF91CF9168
:0208AA000895AF
:1008AC002A01E0AC8F033001E0AC8F032B00E0ACED
:1008BC008F030AFFFFFFFFFF0BFFFFFFFFFF10FF80
:1008CC00FFFFFFFF5F2020202020204C414E43459E
:1008DC005220212020202020005F2020204E4F5528
:0D08EC0056454C4C452050415254494500A2
:0108F90040BE
:1008FA000F931F93CF93DF938C01EB0164D28FE0A8
:10090A0097E20197F1F700C00000C8015BD050D20E
:10091A008FE097E20197F1F700C00000CE0152D0B4
:10092A009FEF28E08DE3915020408040E1F700C01E
:0C093A000000DF91CF911F910F910895F4
:100946001F93CF93DF9300D0CDB7DEB781E68983BF
:100956008FEF8A8380E28093060480E041D2882369
:10096600E1F362E070E0CE01019633D1D0D2182FC8
:10097600CBD280E280930504812F0F900F90DF91F8
:06098600CF911F910895BE
:10098C00CF93DF9385D2882341F0E7E4FFE38081A6
:10099C008D7F808382E08093463F8091473F81FD2D
:1009AC000CC0E7E4FFE38B7F8083C4E2DFE38FEFCF
:1009BC008C8F68D261D28AA101C081E0DF91CF9186
:0209CC0008958C
:1009CE00CF93DF93EC018091833F0EDF61E070E007
:1009DE0082E89FE30CD19AD287E893E10197F1F771
:1009EE0000C0000064E170E0CE0101D18FD287E833
:1009FE0093E10197F1F700C00000C1DFDF91CF91C5
:020A0E00089549
:100A1000E7E4FFE380818E7F8083A4E2BFE382E08E
:100A200092968C9392971496ED91FC91159750960F
:100A30008D919C9151970995823019F0833019F06E
:0E0A400004C06BD1089576D10895E1D10895D8
:100A4E00E0E1F4E0808188608193E83184E0F8078A
:100A5E00C9F7E0E3F4E0808188608193E83384E0B5
:100A6E00F807C9F7E0E5F4E0808188608193E83506
:080A7E0084E0F807C9F70895B0
:100A8600CF93DF9300D0CDB7DEB789836A8380E248
:100A96008093060480E0A4D18823E1F362E070E04D
:100AA600CE01019696D030D280E2809305040F9055
:080AB6000F90DF91CF9108952C
:100ABE0000D2A4E2BFE382E092968C9392971296B4
:100ACE00ED91FC9113971E968D919C911F97099510
:100ADE00823019F0833019F004C018D1089523D153
:060AEE00089584D1089573
:100AF40040E068ED88E790E004D240E068ED80E7EC
:100B040090E0FFD140E068ED81E690E0FAD140E06A
:100B140068ED80E690E0F5D140E068ED82E690E093
:060B2400F0D180E008950D
:100B2A000F931F93CF93DF93EC018B0180E28093A5
:100B3A00060480E053D18823E1F3B801CE0147D0FF
:100B4A00E1D180E280930504DF91CF911F910F914B
:020B5A000895FC
:100B5C009091473F91FD11C0E7E4FFE392609083D1
:100B6C00882321F081E08093453F03C082E080938D
:0E0B7C00453F6DDE5FD080E0089581E0089572
:100B8A00AA1BBB1B51E107C0AA1FBB1FA617B707A9
:100B9A0010F0A61BB70B881F991F5A95A9F78095C5
:080BAA009095BC01CD010895F6
:100BB20097FB072E16F4009406D077FD08D0E4DFE9
:100BC20007FC05D03EF4909581959F4F089570954E
:060BD20061957F4F0895BC
:100BD8006115710571F0DC01680F791FE0E2F8E03A
:100BE8009D91948393819923ECF78481A617B70785
:040BF800B9F70895AC
:100BFC009C019091473F93FF0BC0E4E2FFE3258FEC
:100C0C00368F678F70A3E7E4FFE3892F877F80839C
:020C1C00089539
:100C1E008091833FE9DD62E070E08DE79FE3E7DFDF
:100C2E0075D167E070E080E79FE3E1DF6FD1A7DE6B
:020C3E00089517
:100C4000CF93DF938091473F81FF07C0C7E4DFE385
:100C5000FAD003DE888181FDFBCFDF91CF9108952B
:100C600088E08093450490E890930504E5E2F4E081
:100C700094E09083808380E1808380E28083089584
:100C800088E08093460490E890930504E5E2F4E060
:100C900094E09083808380E1808380E28083089564
:100CA00088E08093450490E890930604E6E2F4E03F
:100CB00094E09083808380E1808380E28083089544
:100CC00088E08093460490E890930604E6E2F4E01E
:100CD00094E09083808380E1808380E28083089524
:100CE0002091813F211109C021E02093813FE0E262
:0E0CF000F8E08083918381E0089580E008950C
:100CFE00E0E1F8E0108212828FE5868381E0838343
:0C0D0E00158217821482108680E0089580
:100D1A00E7E4FFE38081816080838091403F880F10
:0A0D2A0081608093170884E00895AB
:100D3400E7E4FFE38081816080838091403F880FF6
:080D44008093170883E0089575
:100D4C00E0E2F8E081E38083118212821092813F0D
:060D5C00138280E00895FF
:100D620040E068ED80E191E0CDD0E0E1F1E0128277
:060D7200138280E00895E9
:100D78005DD0E7E4FFE380818D7F808382E080930C
:060D8800463F8EE00895D5
:100D8E00AAD09DD0E7E4FFE380818D7F808310920F
:060D9E00463F80E00895CD
:100DA40040E068ED80E890E0ACD0E0E8F0E0118647
:060DB400108680E00895A6
:100DBA008091833F1BDD62E070E089E79FE319DFE2
:060DCA00A7D0DFDD089553
:100DD0008091833F10DD62E070E08BE79FE30EDFE0
:060DE0009CD0D4DD089553
:100DE600E82FF0E0EE0FFF1FE958F04C808191816B
:040DF60074DF089509
:100DFA001CD0E7E4FFE380818D7F80831092463F19
:040E0A008EE00895D9
:100E0E005ED0E7E4FFE380818D7F80831092463FC2
:040E1E0080E00895D3
:100E2200E7E4FFE380818D7F80831092463F80E07C
:020E3200089521
:100E3400E0E1F8E084818860848385818160858332
:020E440008950F
:100E4600E0E1F8E0858188231CF0858186FFFACFF2
:020E56000895FD
:100E5800EBDBA4DF4BDE04D04EDF74DF7EDF0895CA
:0E0E680040E068ED80E590E04AD080E008951B
:0E0E7600EC0168D066D0CE0166D0CE0165D00A
:0C0E8400E0E1F8E083818F738383089520
:0C0E9000E0E1F8E08581806C8583089526
:0C0E9C008091150882FB882780F90895DA
:0C0EA8008091150883FB882780F90895CD
:0C0EB400E0E1F8E084818260848308950E
:0C0EC000E0E1F8E08581886085830895FA
:0C0ECC00E0E1F8E08481836084830895F5
:0C0ED800E0E1F8E084818B7F84830895C2
:0C0EE400E0E1F8E08481846084830895DC
:0C0EF0008F9381E080938A008F91189509
:0A0EFC008091150882958170089519
:080F0600FC0164BF4083089563
:060F0E001092813F0895DE
:060F1400809124080895FD
:060F1A0080E01FDE0895D7
:060F2000DBDF83E0089511
:060F2600D8DF84E008950D
:060F2C00DBDF88E0089500
:040F320081E00895BD
:040F360085E00895B5
:040F3A00EFDE089549
:040F3E00EDDE089547
:040F4200F8DE089538
:020F46005CC885
:020F480008950A
:020F4A00089508
:020F4C00089506
:020F4E00AED81B
:100F500011078D069A06C703CD025C039F07A10700
:100F60009D07070793079007C7069607FD06080524
:040F70005F05BC0657
:100F74005F202020202046494E204445204A4555E4
:040F84002021200008
:100F88002000000000000000000000000000000039
:040F98000000000055
:070F9C0014705E6D0C0106EC
:020FA30031001B
:020FA50000C08A
:020FA700000147
:020FA90000390D
:010FAB003C09
:010FAC000143
:02000004008278
:090000000000020000C40700002A
:00000001FF
