:100000002BC0D1C7A1C7CFC7CEC7CDC7CCC7CBC721
:10001000CAC7C9C7C8C7C7C7C6C7C5C7C4C7C3C774
:10002000C2C7C1C7C0C7BFC7BEC7BDC7BCC7BBC7A4
:10003000BAC7B9C73F003F24000FB63F243F4880EE
:100040003F483F5F000FDA3F5F3F62803F623F63A0
:10005000000FF13F633F648011241FBECFEFCDBF7F
:10006000DFE3DEBFE4E3F0E040E017C0B591A59127
:1000700035912591059107FD0CC095918591EF0172
:10008000F92FE82F05900D92A217B307D9F7FE01BB
:1000900004C01D92A217B307E1F7E835F40731F762
:0800A00069D115C7F894FFCFE8
:1000A800CF93DF93CDB7DEB7A797CDBFDEBF6FE5A0
:1000B80084E2BDD467E086E2BAD46FEF8DE1B7D4AD
:1000C80063E780E5B4D46FEF8DE1B1D460E08CE3F1
:1000D800AED46FE381E2ABD463E082E2A8D460E2FD
:1000E80081E3A5D460E282E3A2D460E283E39FD4F3
:1000F80060E284E39CD460E285E399D460E286E31D
:1001080096D463E083E293D46CE485E290D460E70C
:1001180087E28DD482EE898361E070E0CE0101969A
:10012800D8D481EE8A8361E070E0CE010296D1D402
:100138006CE080E27CD46FEF80E279D46EE080E2FC
:1001480076D46FEF86E073D463E086E270D461E022
:1001580081E36DD461E082E36AD461E083E367D42C
:1001680061E084E364D461E085E361D461E086E31F
:100178005ED486E0EAEEF8E8DE01139601900D926F
:100188008A95E1F766E070E0CE010396A2D486E096
:10019800E0EFF8E8DE01199601900D928A95E1F7F3
:1001A80066E070E0CE01099694D486E0E6EFF8E8C0
:1001B800DE011F9601900D928A95E1F766E070E0E6
:1001C800CE010F9686D46FEF82E031D463E082E2ED
:1001D8002ED468E385E22BD46FE080E228D460E770
:1001E80087E225D46FEF82E022D462E082E21FD456
:1001F8008FEF8D8B61E070E0CE0145966AD486E082
:10020800ECEFF8E8DE01569601900D928A95E1F739
:1002180066E070E0CE0146965CD486E0E2E0F9E85C
:10022800DE015C9601900D928A95E1F766E070E038
:10023800CE014C964ED46FEF8CE0F9D36FEF8DE082
:10024800F6D36FEF8EE0F3D36FEF8FE0F0D386E055
:10025800E8E0F9E8DE01929601900D928A95E1F7BF
:1002680066E070E0CE01829634D46FEF81E1DFD38F
:100278006FEF82E1DCD36FEF83E1D9D36FEF84E1D5
:10028800D6D36FEF85E1D3D36FEF86E1D0D36FEF8D
:1002980081E0CDD36FEF82E0CAD36FEF85E0C7D39B
:1002A8006FEF86E0C4D36FEF80E0C1D36FEF8CE1CE
:1002B800BED36FEF8DE1BBD36FEF86E0B8D36FEF9E
:1002C80081E0B5D36FEF80E0B2D36FEF86E0AFD3B4
:1002D8006FEF88E0ACD36FEF85E0A9D36FEF86E0CE
:1002E800A6D36FEF86E0A3D36FEF86E0A0D36FEFBE
:1002F80081E09DD36FEF80E09AD36FEF83E097D3CF
:100308006FEF84E094D36FEF88E091D36FEF8DE1C6
:100318008ED36FEF8CE18BD36FEF81E088D36FEFD3
:1003280080E085D366E070E0CE018296D2D36FEF8D
:1003380082E07DD366E070E0CE014696CAD366E0DF
:1003480070E0CE014C96C5D36FEF8CE070D36FEFA1
:100358008DE06DD36FEF8EE06AD36FEF8FE067D3D8
:0C036800A796CDBFDEBFDF91CF910895B6
:100374009DD58FE493EC0197F1F700C00000C4D33E
:100384009CD4C5E0D4E010E1D12E00E20F2EF6E2B9
:10039400EF2EF4E0FF2EF02D6894BB24B3F868949C
:1003A400CC24C2F86894AA24A7F8EFE0F7E23197C6
:1003B400F1F700C00000D88208838FE493EC019722
:1003C400F1F700C000006EDE1883B4D28093633F5F
:1003D40025D48091623F833081F028F4813041F04C
:1003E400823041F015C0843069F0853079F010C056
:1003F40035D40EC033D4A8820BC0F7011083B08269
:10040400C08206C0F701B082C08202C0F701C08278
:10041400509953D48091623F863008F076C0809121
:10042400633F853079F41AD412D560915F3F70919F
:10043400603F88E49FE334D168E47FE381E09EE891
:10044400FBD1B3CF982F9F7E913071F4F7D3609195
:100454005F3F7091603F88E49FE322D168E47FE3CB
:100464008DEA9DE8E9D1A1CF853179F4F7D3EFD4B2
:1004740060915F3F7091603F88E49FE311D168E42D
:100484007FE38CEE9DE8D8D190CF833111F0813297
:10049400A1F4D4D360915F3F7091603F61507109C2
:1004A40060935F3F7093603F88E49FE3F9D068E412
:1004B4007FE382EC9DE8C0D178CF853279F4CED346
:1004C400C6D460915F3F7091603F88E49FE3E8D0B9
:1004D40068E47FE387ED9DE8AFD167CF833209F00D
:1004E40064CFACD360915F3F7091603F63507109FA
:1004F40060935F3F7093603F88E49FE3D1D068E4EA
:100504007FE388E99DE898D150CF68E47FE386E6ED
:060514009EE892D14ACFDF
:10051A00E7E4FFE380818E7F80838091433F90915F
:10052A00443F019711F405D501C0FDD4E4E2FFE38D
:10053A00878D90A10197878F90A3892B69F0A58D4C
:10054A00B68D809118088C93858D968D0196858F2E
:10055A00968FD7D484E00895A4E2BFE35D96ED9127
:10056A00FC915E978091180880835D968D919C918D
:10057A005E9701965D968D939C935E97E7E4FFE301
:10058A00808188608083ED91FC9111971C968D91F2
:10059A009C911D9709958250823018F4CAD488E03C
:0605AA000895DFD308955F
:1005B000CF93DF9324D2C0E0D4E08AEB8883A0E21B
:1005C000B4E08CE38C93E0E4F4E088E080831C8268
:1005D00014961C9214971482188A198A1A8A1B8AF4
:1005E0001C8A1D8A1E8A1F8A50961C92509751960B
:1005F0001C92519752961C92529753961C92539765
:1006000054961C92549755961C92559756961C9248
:10061000569757961C92108A118A128A138A148A46
:10062000158A168A178AE0E0F2E01082118212829F
:080630001382DF91CF910895C0
:100638008DD48823B1F0A4E2BFE31696ED91FC9126
:10064800179752968D919C9153970995823019F07E
:10065800833019F004C04CD3089557D30895EBD3D1
:100668000895E7E4FFE3808188608083A4E2BFE324
:10067800ED91FC9111971C968D919C911D97099570
:10068800833031F0843031F0823031F431D3089541
:0C0698003CD3089538D00895CED30895C7
:1006A4001F93CF93DF93FC019B0177232CF43195A7
:1006B400219531091DE201C010E2CAE0D0E0C90170
:1006C400BE0166D2482F8FE5808380E2868380E571
:1006D400878384E5808783E581878AE3828713871C
:1006E400C901841B910964E670E052D2BE0150D264
:1006F400605D6487405D45878091623F8F5F809332
:0A070400623FDF91CF911F9108952D
:10070E0022D48823B1F0A4E2BFE31696ED91FC91BA
:10071E00179752968D919C9153970995823019F0A7
:10072E00833019F004C0E1D20895ECD2089580D33D
:10073E000895E7E4FFE380818E7F8083E4E2FFE3A8
:10074E00A58DB68DCD010196858F968F8C91809358
:10075E001808878D90A10197878F90A3892B11F48C
:08076E0085E0089583E0089581
:100776009091473F92FD2CC0E4E2FFE3848FA7E40B
:10078600BFE3892F887F9EE091A324EF31E0228F7B
:10079600338F846088608C9389EC97E080839183A3
:1007A600148615868283938316861786848395839B
:1007B600108A118A86839783128A138A8BEC97E0B4
:1007C60080879187148A158A5ED38BD380E008953B
:0407D60081E0089521
:1007DA000F931F93CF93C82F8B018CE3C7DFC111EF
:1007EA0012C061E070E08DE69FE8F4D1C1D387E8DA
:1007FA0093E10197F1F700C0000064E170E0C801DD
:10080A00E9D1B6D311C0C13039F462E070E088EAA8
:10081A009FE8E0D1ADD308C0C23031F462E070E0A5
:10082A008AEA9FE8D7D1A4D3A5D0CF911F910F917F
:02083A0008951F
:10083C000F931F93CF93DF938C01EB0160E070E07B
:10084C0082E0C5DF8FE097E20197F1F700C000006E
:10085C00B80180E0BCDF60E070E081E0B8DF8FE0E1
:10086C0097E20197F1F700C00000BE0180E0AFDF16
:10087C009FEF28E08DE3915020408040E1F700C0CD
:0C088C000000DF91CF911F910F910895A3
:10089800CF93DF9325D38091473F80FF06C056D37F
:1008A800882319F08FE08093453F26D3882319F0D9
:1008B80080E18093453F1AD3882319F081E1809322
:1008C800453FC4E2DFE3E9A1F0E0EE0FFF1FE0508F
:1008D800F14C0190F081E02D099589A3DF91CF912A
:0208E800089571
:1008EA002A01E0AC8F033001E0AC8F032B00E0ACAF
:1008FA008F030AFFFFFFFFFF0BFFFFFFFFFF10FF42
:10090A00FFFFFFFF5F20202020204C414E4345522D
:10091A002021202020202020005F20204E4F5556E5
:0E092A00454C4C452050415254494520200078
:100938001F93CF93DF9300D0CDB7DEB781E68983CD
:100948008FEF8A8380E28093060480E060D2882358
:10095800E1F362E070E0CE0101962BD107D3182FA6
:1009680002D380E280930504812F0F900F90DF91CE
:06097800CF911F910895CC
:10097E00CF93DF93B8D2882341F0E7E4FFE3808181
:10098E008D7F808382E08093463F8091473F81FD3B
:10099E000CC0E7E4FFE38B7F8083C4E2DFE38FEFDD
:1009AE008C8F9BD294D28AA101C081E0DF91CF912E
:0209BE0008959A
:1009C000E7E4FFE380818E7F8083A4E2BFE382E0DF
:1009D00092968C9392971496ED91FC911597509660
:1009E0008D919C9151970995823019F0833019F0BF
:0E09F00004C082D108958DD1089521D20895BA
:1009FE00E0E1F4E0808188608193E83184E0F807DB
:100A0E00C9F7E0E3F4E0808188608193E83384E005
:100A1E00F807C9F7E0E5F4E0808188608193E83556
:080A2E0084E0F807C9F7089500
:100A3600CF93DF9300D0CDB7DEB789836A8380E298
:100A46008093060480E0E4D18823E1F362E070E05D
:100A5600CE010196AFD088D280E2809305040F9034
:080A66000F90DF91CF9108957C
:100A6E0054D2A4E2BFE382E092968C9392971296B0
:100A7E00ED91FC9113971E968D919C911F97099560
:100A8E00823019F0833019F004C02FD108953AD175
:060A9E000895C4D1089583
:100AA40040E068ED88E790E058D240E068ED80E7E8
:100AB40090E053D240E068ED81E690E04ED240E011
:100AC40068ED80E690E049D240E068ED82E690E08F
:060AD40044D280E0089509
:100ADA000F931F93CF93DF93EC018B0180E28093F6
:100AEA00060480E093D18823E1F3B801CE0160D0F7
:100AFA0039D280E280930504DF91CF911F910F9143
:020B0A0008954C
:100B0C008CE333DE62E070E08CEA9FE862D02FD297
:100B1C0067E070E086E69FE85CD029D22ADF2FE7F9
:100B2C008AE196E0215080409040E1F700C000003F
:020B3C0008951A
:100B3E009091473F91FD11C0E7E4FFE392609083EF
:100B4E00882321F081E08093453F03C082E08093AB
:0E0B5E00453F9BDE4ED080E0089581E0089573
:100B6C00AA1BBB1B51E107C0AA1FBB1FA617B707C7
:100B7C0010F0A61BB70B881F991F5A95A9F78095E3
:080B8C009095BC01CD01089514
:100B940097FB072E16F4009406D077FD08D0E4DF07
:100BA40007FC05D03EF4909581959F4F089570956C
:060BB40061957F4F0895DA
:100BBA006115710571F0DC01680F791FE0E2F8E058
:100BCA009D91948393819923ECF78481A617B707A3
:040BDA00B9F70895CA
:100BDE009C019091473F93FF0BC0E4E2FFE3258F0A
:100BEE00368F678F70A3E7E4FFE3892F877F8083BB
:020BFE00089558
:100C0000CF93DF938091473F81FF07C0C7E4DFE3C5
:100C100046D142DE888181FDFBCFDF91CF910895DF
:100C200088E08093450490E890930504E5E2F4E0C1
:100C300094E09083808380E1808380E280830895C4
:100C400088E08093460490E890930504E5E2F4E0A0
:100C500094E09083808380E1808380E280830895A4
:100C600088E08093450490E890930604E6E2F4E07F
:100C700094E09083808380E1808380E28083089584
:100C800088E08093460490E890930604E6E2F4E05E
:100C900094E09083808380E1808380E28083089564
:100CA0002091613F211109C021E02093613FE0E2E2
:0E0CB000F8E08083918381E0089580E008954C
:100CBE00E0DF6EE079E883E299E8B9DD81E08093C8
:0E0CCE00623F10925F3F1092603FA3DF0895D7
:100CDC00E0E1F8E0108212828FE5868381E0838365
:0C0CEC00158217821482108680E00895A3
:100CF800E7E4FFE38081816080838091403F880F33
:0A0D080081608093170884E00895CD
:100D1200E7E4FFE38081816080838091403F880F18
:080D22008093170883E0089597
:100D2A00E0E2F8E081E38083118212821092613F4F
:060D3A00138280E0089521
:100D400040E068ED80E191E00AD1E0E1F1E012825B
:060D5000138280E008950B
:100D56009AD0E7E4FFE380818D7F808382E08093F1
:060D6600463F8EE00895F7
:100D6C00E7D0DAD0E7E4FFE380818D7F80831092B7
:060D7C00463F80E00895EF
:100D820040E068ED80E890E0E9D0E0E8F0E011862C
:060D9200108680E00895C8
:100D98005F20204E49562044203A202D33205054BD
:050DA800532020200093
:100DAD005F2020444F4D4D414745203A20203020B3
:050DBD0050545320001A
:100DC2005F20204F55462E2E2E203A202D312050C6
:050DD200545320200035
:100DD7005F20204E49562044203A202B352050547E
:050DE700532020200054
:100DEC005F20204E4956204D203A202B3520505460
:050DFC0053202020003F
:100E01005F20204E49562046203A202B3520505451
:050E1100532020200029
:100E1600E82FF0E0EE0FFF1FE35AF04C808191813E
:040E26003CDF089510
:100E2A0030D0E7E4FFE380818D7F80831092463FD4
:040E3A008EE00895A9
:100E3E0072D0E7E4FFE380818D7F80831092463F7E
:040E4E0080E00895A3
:100E520080915F3F9091603F059680935F3F9093B2
:040E6200603F089550
:100E66005F202020202046494E204445204A4555F3
:040E76002021200017
:100E7A00E7E4FFE380818D7F80831092463F80E024
:020E8A000895C9
:100E8C00E0E1F8E0848188608483858181608583DA
:020E9C000895B7
:100E9E00E0E1F8E0858188231CF0858186FFFACF9A
:020EAE000895A5
:100EB0007FDB67DFF7DD04D011DF37DF41DF089527
:0E0EC00040E068ED80E590E04AD080E00895C3
:0E0ECE00EC016FD06DD0CE016DD0CE016CD096
:0C0EDC00E0E1F8E083818F7383830895C8
:0C0EE800E0E1F8E08581806C85830895CE
:0C0EF4008091150882FB882780F9089582
:0C0F00008091150883FB882780F9089574
:0C0F0C00E0E1F8E08481826084830895B5
:0C0F1800E0E1F8E08581886085830895A1
:0C0F2400E0E1F8E084818360848308959C
:0C0F3000E0E1F8E084818B7F8483089569
:0C0F3C00E0E1F8E0848184608483089583
:0C0F48008F9381E080938A008F911895B0
:0A0F540080911508829581700895C0
:080F5E00FC0164BF408308950B
:070F660014705E6D0C010622
:010F6D004043
:060F6E001092613F08959E
:060F74008091240808959D
:060F7A0080E0E0DD0895B7
:060F8000D7DF83E00895B5
:060F8600D4DF84E00895B1
:060F8C00D7DF88E00895A4
:040F920081E008955D
:040F960085E0089555
:040F9A00AEDE08952A
:040F9E00ACDE089528
:040FA200B7DE089519
:020FA6002CC855
:020FA80000C087
:020FAA00000144
:020FAC0000390A
:020FAE000895A4
:020FB0000895A2
:020FB2000895A0
:020FB40077D8EC
:100FB6003D077C06890687038D021C03CF07D107F0
:100FC600CD071F07C307C007B606C6071507E00407
:040FD6003705AB062A
:100FDA0020000000000000000000000000000000E7
:050FEA00000000000002
:020FEF003100CF
:010FF10001FE
:02000004008278
:090000000000020000C40700002A
:00000001FF
