:1000000025C053C617C651C66DC4B3C44EC64DC62F
:100010004CC64BC64AC649C648C647C646C645C66C
:1000200044C643C642C641C640C63FC63EC63DC69C
:100030003CC63BC63F003F02000CC63F023F148057
:100040003F143F16000CC83F163F1C8011241FBEF2
:10005000CFEFCDBFDFE3DEBFE4E3F0E040E017C069
:10006000B591A59135912591059107FD0CC095910C
:100070008591EF01F92FE82F05900D92A217B30794
:10008000D9F7FE0104C01D92A217B307E1F7EC34C3
:0C009000F40731F78ED2C7C5F894FFCFFB
:10009C00CF93DF93CDB7DEB7A797CDBFDEBF42E0DE
:1000AC0050E06FE570E084E290E09DD442E050E0D7
:1000BC0067E070E086E290E096D442E050E06FEFAB
:1000CC0070E08DE190E08FD442E050E063E770E0A7
:1000DC0080E590E088D442E050E06FEF70E08DE175
:1000EC0090E081D442E050E060E070E08CE390E07E
:1000FC007AD442E050E06FE370E081E290E073D498
:10010C0042E050E063E070E082E290E06CD442E0C8
:10011C0050E060E270E081E390E065D442E050E0B2
:10012C0060E270E082E390E05ED442E050E060E296
:10013C0070E083E390E057D442E050E060E270E07E
:10014C0084E390E050D442E050E060E270E085E35C
:10015C0090E049D442E050E060E270E086E390E049
:10016C0042D442E050E063E070E083E290E03BD4A4
:10017C0042E050E06CE470E085E290E034D442E080
:10018C0050E060E770E087E290E02DD482EE898346
:10019C0061E070E0CE0101969AD481EE8A8361E031
:1001AC0070E0CE01029693D442E050E06CE070E037
:1001BC0080E290E018D442E050E06FEF70E080E213
:1001CC0090E011D442E050E06EE070E080E290E00C
:1001DC000AD442E050E06FEF70E086E090E003D488
:1001EC0042E050E063E070E086E290E0FCD342E055
:1001FC0050E061E070E081E390E0F5D342E050E044
:10020C0061E070E082E390E0EED342E050E061E028
:10021C0070E083E390E0E7D342E050E061E070E00F
:10022C0084E390E0E0D342E050E061E070E085E3ED
:10023C0090E0D9D342E050E061E070E086E390E0DA
:10024C00D2D386E0E8E5FBE8DE01139601900D922F
:10025C008A95E1F766E070E0CE01039638D486E02B
:10026C00EEE5FBE8DE01199601900D928A95E1F717
:10027C0066E070E0CE0109962AD486E0E4E6FBE85D
:10028C00DE011F9601900D928A95E1F766E070E011
:10029C00CE010F961CD442E050E06FEF70E082E08C
:1002AC0090E0A1D342E050E063E070E082E290E0A5
:1002BC009AD342E050E068E370E085E290E093D39B
:1002CC0042E050E06EE070E080E290E08CD342E0DF
:1002DC0050E06FEF70E082E090E085D342E050E0B8
:1002EC0063E070E082E290E07ED38FEF8D8B61E073
:1002FC0070E0CE014596EBD386E0EAE6FBE8DE0142
:10030C00569601900D928A95E1F766E070E0CE0169
:10031C004696DDD386E0E0E7FBE8DE015C960190D3
:10032C000D928A95E1F766E070E0CE014C96CFD342
:10033C0042E050E06FEF70E08CE090E054D342E08C
:10034C0050E06FEF70E08DE090E04DD342E050E074
:10035C006FEF70E08EE090E046D342E050E06FEF3C
:10036C0070E08FE090E03FD386E0E6E7FBE8DE014B
:10037C00929601900D928A95E1F766E070E0CE01BD
:10038C008296A5D342E050E06FEF70E081E190E0FF
:10039C002AD342E050E06FEF70E082E190E023D38B
:1003AC0042E050E06FEF70E083E190E01CD342E05C
:1003BC0050E06FEF70E084E190E015D342E050E044
:1003CC006FEF70E085E190E00ED342E050E06FEF0C
:1003DC0070E086E190E007D342E050E06FEF70E010
:1003EC0081E090E000D342E050E06FEF70E082E0FB
:1003FC0090E0F9D242E050E06FEF70E085E090E0E1
:10040C00F2D242E050E06FEF70E086E090E0EBD289
:10041C0042E050E06FEF70E080E090E0E4D242E028
:10042C0050E06FEF70E08CE190E0DDD242E050E004
:10043C006FEF70E08DE190E0D6D242E050E06FEFCC
:10044C0070E086E090E0CFD242E050E06FEF70E0D9
:10045C0081E090E0C8D242E050E06FEF70E080E0C5
:10046C0090E0C1D242E050E06FEF70E086E090E0A7
:10047C00BAD242E050E06FEF70E088E090E0B3D287
:10048C0042E050E06FEF70E085E090E0ACD242E0EB
:10049C0050E06FEF70E086E090E0A5D242E050E0D3
:1004AC006FEF70E086E090E09ED242E050E06FEF9C
:1004BC0070E086E090E097D242E050E06FEF70E0A1
:1004CC0081E090E090D242E050E06FEF70E080E08D
:1004DC0090E089D242E050E06FEF70E083E090E072
:1004EC0082D242E050E06FEF70E084E090E07BD28B
:1004FC0042E050E06FEF70E088E090E074D242E0B0
:10050C0050E06FEF70E08DE190E06DD242E050E092
:10051C006FEF70E08CE190E066D242E050E06FEF5C
:10052C0070E081E090E05FD242E050E06FEF70E06D
:10053C0080E090E058D266E070E0CE018296C7D29F
:10054C0042E050E06FEF70E082E090E04CD266E069
:10055C0070E0CE014696BBD266E070E0CE014C96C0
:10056C00B6D242E050E06FEF70E08CE090E03BD20E
:10057C0042E050E06FEF70E08DE090E034D242E06A
:10058C0050E06FEF70E08EE090E02DD242E050E052
:10059C006FEF70E08FE090E026D2A796CDBFDEBF64
:0605AC00DF91CF910895DC
:1005B20032D37894E6E4F4E082E0808384E08083BE
:1005C20088E080832FE788E391E0215080409040CB
:1005D200E1F700C00000C5E0D4E010E1188380E23A
:1005E2008883EFE4F3EC3197F1F700C0000055DDAA
:1005F200188387E893E10197F1F700C0000082E4D5
:1006020096E031D386E496E01FD38AE496E017D3CE
:100612008EE496E01ED38DEC95E02AD389E195E035
:100622001DD373D2C6E4D4E06894DD24D1F80F2E32
:10063200F5E4EF2EF4E0FF2EF02D04E018E08091B7
:10064200143F9091153F82309105A1F183309105BD
:1006520009F480C081309105B1F7F701D082088397
:10066200188380911A3F81110CC08091193F81112A
:1006720008C08091183F811104C08091173F8823E0
:1006820039F042E050E065E080EAB2D13ED2D7CF05
:1006920080911B3F882339F042E050E061E080EA1C
:1006A200A7D133D2CCCF42E050E060E080EAA0D1C3
:1006B2002CD2C5CFD882F7010083188380911A3FCC
:1006C200811105C09091183F992309F478C0909147
:1006D200193F992321F09091173F91116DC042E08B
:1006E20050E065E180EA84D110D2A9CF9091173F02
:1006F200911105C06FC09091183F91116EC042E0F8
:1007020050E061E180EA74D100D299CF8091183F24
:10071200811166C08091173F811164C042E050E0B0
:1007220063E180EA65D1F1D18ACF309988CF811116
:1007320086CF911184CF8091183F811180CF809113
:10074200173F81117CCF42E050E060E080EA50D157
:10075200DCD175CFD8820883F701108380911A3FCC
:10076200811104C08091183F882339F042E050E0A3
:1007720065E280EA3DD1C9D162CF8091193F8111F2
:1007820004C08091173F882339F042E050E061E2D3
:1007920080EA2ED1BAD153CF309B19C042E050E04B
:1007A20063E280EA25D1B1D14ACF42E050E060E075
:1007B20080EA1ED1AAD143CF81119DCFA0CF9091C3
:1007C200193F992309F492CF9ACF86B138CF309945
:1007D20036CFEBCF309BA9CF99CF309BA6CFF5CFA9
:0A07E20086B12DCF309BABCF2ACF9C
:1007EC00CF93DF933DD1C0E0D4E08AE78883A0E2C9
:1007FC00B4E01C92E0E4F4E08EE0808380E28C8331
:10080C0014961C9214971482188A198A1A8A1B8AB5
:10081C001C8A1D8A1E8A1F8A82E050968C935097E0
:10082C0051968C93519752968C93529753968C93D6
:10083C00539754968C93549755961C92559756965D
:10084C001C92569757961C9283E0808B118A128AC1
:10085C00138A148A158A168A178AE0E0F2E010824D
:10086C0011821282138286E596E08093123F909358
:10087C00133F87E596E08093103F9093113F88E5F6
:10088C0096E080930E3F90930F3F89E596E080931E
:10089C000C3F90930D3F8AE596E080930A3F90932E
:1008AC000B3F8BE596E08093083F9093093F8CE5D6
:1008BC0096E08093063F9093073F8DE596E08093FA
:1008CC00043F9093053F8EE596E08093023F909312
:0808DC00033FDF91CF91089565
:1008E4001F920F920FB60F9211242F933F934F93A1
:1008F4005F936F937F938F939F93AF93BF93EF9384
:10090400FF933B9B05C0E091123FF091133F099583
:100914003A9B05C0E091103FF091113F09953C9B33
:1009240005C0E0910C3FF0910D3F0995399B05C03E
:10093400E091083FF091093F0995389B05C0E0918B
:10094400043FF091053F09958FEF87B9FF91EF912F
:10095400BF91AF919F918F917F916F915F914F91D3
:0E0964003F912F910F900FBE0F901F9018958E
:100972001F920F920FB60F9211242F933F934F9312
:100982005F936F937F938F939F93AF93BF93EF93F5
:10099200FF935B9B05C0E0910E3FF0910F3F0995DD
:1009A200589B05C0E0910A3FF0910B3F09955A9B75
:1009B20005C0E091063FF091073F0995599B05C09C
:1009C200E091023FF091033F09958FEF8BB9FF91C0
:1009D200EF91BF91AF919F918F917F916F915F91B5
:1009E2004F913F912F910F900FBE0F901F9018952E
:1009F2000F931F93CF93DF9300D0CDB7DEB78A0159
:100A020089836A8380E28093060480E0F3D088239E
:100A1200E1F3B801CE0101968CD043D180E28093FC
:100A220005040F900F90DF91CF911F910F910895C0
:100A32008091143F9091153F0196843091052CF4DA
:100A42008093143F9093153F06C081E090E080931D
:100A5200143F9093153F2FEB87E299E0215080409D
:0A0A62009040E1F700C00000089585
:100A6C00E0E1F4E0808188608193E83184E0F8076C
:100A7C00C9F7E0E3F4E0808188608193E83384E097
:100A8C00F807C9F7E0E5F4E0808188608193E835E8
:080A9C0084E0F807C9F7089592
:100AA40040E068ED88E790E0E7D040E068ED80E75B
:100AB40090E0E2D040E068ED81E690E0DDD040E0F7
:100AC40068ED80E690E0D8D040E068ED82E690E002
:060AD400D3D080E008957C
:100ADA000F931F93CF93DF93EC018B0180E28093F6
:100AEA00060480E083D08823E1F3B801CE011DD04B
:100AFA00D4D080E280930504DF91CF911F910F91AA
:020B0A0008954C
:100B0C0010921A3F1092193F1092183F1092173FF3
:100B1C0010921B3F2FEF88E09DE3215080409040C6
:080B2C00E1F700C0000008958C
:100B34006115710571F0DC01680F791FE0E2F8E0DE
:100B44009D91948393819923ECF78481A617B70729
:040B5400B9F7089550
:100B58002A00E0AC8F033000E0AC8F032B01E0AC3F
:100B68008F030AFFFFFFFFFF0BFFFFFFFFFF10FFD1
:040B7800FFFFFFFF7D
:100B7C002091163F211109C021E02093163FE0E29D
:0E0B8C00F8E08083918381E0089580E0089571
:100B9A0081E080931B3F2FE38DE093E0215080405A
:0A0BAA009040E1F700C0000008953C
:100BB400E0E2F8E081E38083118212821092163F12
:060BC400138280E0089599
:100BCA0040E068ED80E191E054D0E0E1F1E012828A
:060BDA00138280E0089583
:100BE00040E068ED80E890E049D0E0E8F0E0118670
:060BF000108680E008956C
:100BF600E82FF0E0EE0FFF1FE050F14C808191816D
:040C0600BADF0895B4
:0E0C0A0040E068ED80E590E034D080E0089591
:0E0C1800E9DDE2DF43DFF5DFC9DFD3DF08955A
:0E0C2600EC014BD049D0CE0149D0CE0148D0D0
:0C0C34008F9381E080938A008F911895C7
:0A0C40008093123F9093133F089534
:0A0C4A008093103F9093113F08952E
:0A0C540080930C3F90930D3F08952C
:0A0C5E0080930A3F90930B3F089526
:0A0C68008093083F9093093F089520
:0A0C72008093043F9093053F08951E
:080C7C00FC0164BF40830895F0
:080C840081E080931A3F0895FE
:080C8C0081E08093193F0895F7
:080C940081E08093183F0895F0
:080C9C0081E08093173F0895E9
:060CA4001092163F0895B6
:020CAA00AAC9D5
:020CAC000895A9
:020CAE000895A7
:020CB0000895A5
:020CB2000895A3
:020CB4000895A1
:020CB60008959F
:020CB80008959D
:020CBA0008959B
:020CBC00089599
:020CBE00089597
:020CC000089595
:020CC200089593
:020CC400E9D96C
:020CC6003100FB
:020CC800010029
:02000004008278
:090000000000020000C40700002A
:00000001FF
