:1000000025C04FC613C64DC669C4AFC44AC649C64B
:1000100048C647C646C645C644C643C642C641C68C
:1000200040C63FC63EC63DC63CC63BC63AC639C6BC
:1000300038C637C63F003F02000CBE3F023F148067
:100040003F143F16000CC03F163F1C8011241FBEFA
:10005000CFEFCDBFDFE3DEBFE4E3F0E040E017C069
:10006000B591A59135912591059107FD0CC095910C
:100070008591EF01F92FE82F05900D92A217B30794
:10008000D9F7FE0104C01D92A217B307E1F7EC34C3
:0C009000F40731F78ED2C3C5F894FFCFFF
:10009C00CF93DF93CDB7DEB7A797CDBFDEBF42E0DE
:1000AC0050E06FE570E084E290E099D442E050E0DB
:1000BC0067E070E086E290E092D442E050E06FEFAF
:1000CC0070E08DE190E08BD442E050E063E770E0AB
:1000DC0080E590E084D442E050E06FEF70E08DE179
:1000EC0090E07DD442E050E060E070E08CE390E082
:1000FC0076D442E050E06FE370E081E290E06FD4A0
:10010C0042E050E063E070E082E290E068D442E0CC
:10011C0050E060E270E081E390E061D442E050E0B6
:10012C0060E270E082E390E05AD442E050E060E29A
:10013C0070E083E390E053D442E050E060E270E082
:10014C0084E390E04CD442E050E060E270E085E360
:10015C0090E045D442E050E060E270E086E390E04D
:10016C003ED442E050E063E070E083E290E037D4AC
:10017C0042E050E06CE470E085E290E030D442E084
:10018C0050E060E770E087E290E029D482EE89834A
:10019C0061E070E0CE01019696D481EE8A8361E035
:1001AC0070E0CE0102968FD442E050E06CE070E03B
:1001BC0080E290E014D442E050E06FEF70E080E217
:1001CC0090E00DD442E050E06EE070E080E290E010
:1001DC0006D442E050E06FEF70E086E090E0FFD391
:1001EC0042E050E063E070E086E290E0F8D342E059
:1001FC0050E061E070E081E390E0F1D342E050E048
:10020C0061E070E082E390E0EAD342E050E061E02C
:10021C0070E083E390E0E3D342E050E061E070E013
:10022C0084E390E0DCD342E050E061E070E085E3F1
:10023C0090E0D5D342E050E061E070E086E390E0DE
:10024C00CED386E0E0E5FBE8DE01139601900D923B
:10025C008A95E1F766E070E0CE01039634D486E02F
:10026C00E6E5FBE8DE01199601900D928A95E1F71F
:10027C0066E070E0CE01099626D486E0ECE5FBE85A
:10028C00DE011F9601900D928A95E1F766E070E011
:10029C00CE010F9618D442E050E06FEF70E082E090
:1002AC0090E09DD342E050E063E070E082E290E0A9
:1002BC0096D342E050E068E370E085E290E08FD3A3
:1002CC0042E050E06EE070E080E290E088D342E0E3
:1002DC0050E06FEF70E082E090E081D342E050E0BC
:1002EC0063E070E082E290E07AD38FEF8D8B61E077
:1002FC0070E0CE014596E7D386E0E2E6FBE8DE014E
:10030C00569601900D928A95E1F766E070E0CE0169
:10031C004696D9D386E0E8E6FBE8DE015C960190D0
:10032C000D928A95E1F766E070E0CE014C96CBD346
:10033C0042E050E06FEF70E08CE090E050D342E090
:10034C0050E06FEF70E08DE090E049D342E050E078
:10035C006FEF70E08EE090E042D342E050E06FEF40
:10036C0070E08FE090E03BD386E0EEE6FBE8DE0148
:10037C00929601900D928A95E1F766E070E0CE01BD
:10038C008296A1D342E050E06FEF70E081E190E003
:10039C0026D342E050E06FEF70E082E190E01FD393
:1003AC0042E050E06FEF70E083E190E018D342E060
:1003BC0050E06FEF70E084E190E011D342E050E048
:1003CC006FEF70E085E190E00AD342E050E06FEF10
:1003DC0070E086E190E003D342E050E06FEF70E014
:1003EC0081E090E0FCD242E050E06FEF70E082E000
:1003FC0090E0F5D242E050E06FEF70E085E090E0E5
:10040C00EED242E050E06FEF70E086E090E0E7D291
:10041C0042E050E06FEF70E080E090E0E0D242E02C
:10042C0050E06FEF70E08CE190E0D9D242E050E008
:10043C006FEF70E08DE190E0D2D242E050E06FEFD0
:10044C0070E086E090E0CBD242E050E06FEF70E0DD
:10045C0081E090E0C4D242E050E06FEF70E080E0C9
:10046C0090E0BDD242E050E06FEF70E086E090E0AB
:10047C00B6D242E050E06FEF70E088E090E0AFD28F
:10048C0042E050E06FEF70E085E090E0A8D242E0EF
:10049C0050E06FEF70E086E090E0A1D242E050E0D7
:1004AC006FEF70E086E090E09AD242E050E06FEFA0
:1004BC0070E086E090E093D242E050E06FEF70E0A5
:1004CC0081E090E08CD242E050E06FEF70E080E091
:1004DC0090E085D242E050E06FEF70E083E090E076
:1004EC007ED242E050E06FEF70E084E090E077D293
:1004FC0042E050E06FEF70E088E090E070D242E0B4
:10050C0050E06FEF70E08DE190E069D242E050E096
:10051C006FEF70E08CE190E062D242E050E06FEF60
:10052C0070E081E090E05BD242E050E06FEF70E071
:10053C0080E090E054D266E070E0CE018296C3D2A7
:10054C0042E050E06FEF70E082E090E048D266E06D
:10055C0070E0CE014696B7D266E070E0CE014C96C4
:10056C00B2D242E050E06FEF70E08CE090E037D216
:10057C0042E050E06FEF70E08DE090E030D242E06E
:10058C0050E06FEF70E08EE090E029D242E050E056
:10059C006FEF70E08FE090E022D2A796CDBFDEBF68
:0605AC00DF91CF910895DC
:1005B2002ED37894E6E4F4E088E0808384E08083BC
:1005C20082E080832FE788E391E0215080409040D1
:1005D200E1F700C00000C5E0D4E010E1188380E23A
:1005E2008883EFE4F3EC3197F1F700C0000055DDAA
:1005F200188387E893E10197F1F700C000008EE3CA
:1006020096E02DD382E496E01BD386E496E013D3E2
:100612008AE496E01AD389EC95E026D385E195E049
:1006220019D36FD2C6E4D4E06894DD24D3F80F2E38
:10063200F5E4EF2EF4E0FF2EF02D04E012E08091BD
:10064200143F9091153F82309105A1F183309105BD
:1006520009F47EC081309105B1F7F701D082088399
:10066200188380911A3F81110CC08091193F81112A
:1006720008C08091183F811104C08091173F8823E0
:1006820039F042E050E065E080EAAED13AD2D7CF0D
:1006920080911B3F882339F042E050E061E080EA1C
:1006A200A3D12FD2CCCF42E050E060E080EA9CD1CF
:1006B20028D2C5CFD882F7010083188380911A3FD0
:1006C200811105C09091183F992309F478C0909147
:1006D200193F992321F09091173F91116DC042E08B
:1006E20050E065E180EA80D10CD2A9CF9091173F0A
:1006F200911105C070C09091183F911166C042E0FF
:1007020050E061E180EA70D1FCD199CF8091183F2D
:10071200811195CF8091173F811191CF42E050E036
:1007220063E180EA61D1EDD18ACF811188CF911145
:1007320086CF8091183F811182CF8091173F81111E
:100742007ECF42E050E060E080EA4ED1DAD177CF4E
:10075200D8820883F701108380911A3F811104C067
:100762008091183F882339F042E050E065E280EA48
:100772003BD1C7D164CF8091193F811104C08091D0
:10078200173F882339F042E050E061E280EA2CD141
:10079200B8D155CF80911B3F882339F042E050E019
:1007A20063E280EA21D1ADD14ACF42E050E060E07D
:1007B20080EA1AD1A6D143CF81119DCFA0CF9091CB
:1007C200193F992309F492CF9ACF20911B3F2223FC
:1007D20009F4ABCF34CF90911B3F992309F4A5CFF5
:0207E20095CFB1
:1007E400CF93DF933DD1C0E0D4E08AE78883A0E2D1
:1007F400B4E01C92E0E4F4E08EE0808380E28C8339
:1008040014961C9214971482188A198A1A8A1B8ABD
:100814001C8A1D8A1E8A1F8A82E050968C935097E8
:1008240051968C93519752968C93529753968C93DE
:10083400539754968C93549755961C925597569665
:100844001C92569757961C9283E0808B118A128AC9
:10085400138A148A158A168A178AE0E0F2E0108255
:1008640011821282138282E596E08093123F909364
:10087400133F83E596E08093103F9093113F84E506
:1008840096E080930E3F90930F3F85E596E080932A
:100894000C3F90930D3F86E596E080930A3F90933A
:1008A4000B3F87E596E08093083F9093093F88E5E6
:1008B40096E08093063F9093073F89E596E0809306
:1008C400043F9093053F8AE596E08093023F90931E
:0808D400033FDF91CF9108956D
:1008DC001F920F920FB60F9211242F933F934F93A9
:1008EC005F936F937F938F939F93AF93BF93EF938C
:1008FC00FF933B9B05C0E091123FF091133F09958C
:10090C003A9B05C0E091103FF091113F09953C9B3B
:10091C0005C0E0910C3FF0910D3F0995399B05C046
:10092C00E091083FF091093F0995389B05C0E09193
:10093C00043FF091053F09958FEF87B9FF91EF9137
:10094C00BF91AF919F918F917F916F915F914F91DB
:0E095C003F912F910F900FBE0F901F90189596
:10096A001F920F920FB60F9211242F933F934F931A
:10097A005F936F937F938F939F93AF93BF93EF93FD
:10098A00FF935B9B05C0E0910E3FF0910F3F0995E5
:10099A00589B05C0E0910A3FF0910B3F09955A9B7D
:1009AA0005C0E091063FF091073F0995599B05C0A4
:1009BA00E091023FF091033F09958FEF8BB9FF91C8
:1009CA00EF91BF91AF919F918F917F916F915F91BD
:1009DA004F913F912F910F900FBE0F901F90189536
:1009EA000F931F93CF93DF9300D0CDB7DEB78A0161
:1009FA0089836A8380E28093060480E0F3D08823A7
:100A0A00E1F3B801CE0101968CD043D180E2809304
:100A1A0005040F900F90DF91CF911F910F910895C8
:100A2A008091143F9091153F0196843091052CF4E2
:100A3A008093143F9093153F06C081E090E0809325
:100A4A00143F9093153F2FEB87E299E021508040A5
:0A0A5A009040E1F700C0000008958D
:100A6400E0E1F4E0808188608193E83184E0F80774
:100A7400C9F7E0E3F4E0808188608193E83384E09F
:100A8400F807C9F7E0E5F4E0808188608193E835F0
:080A940084E0F807C9F708959A
:100A9C0040E068ED88E790E0E7D040E068ED80E763
:100AAC0090E0E2D040E068ED81E690E0DDD040E0FF
:100ABC0068ED80E690E0D8D040E068ED82E690E00A
:060ACC00D3D080E0089584
:100AD2000F931F93CF93DF93EC018B0180E28093FE
:100AE200060480E083D08823E1F3B801CE011DD053
:100AF200D4D080E280930504DF91CF911F910F91B2
:020B0200089554
:100B040010921A3F1092193F1092183F1092173FFB
:100B140010921B3F2FEF88E09DE3215080409040CE
:080B2400E1F700C00000089594
:100B2C006115710571F0DC01680F791FE0E2F8E0E6
:100B3C009D91948393819923ECF78481A617B70731
:040B4C00B9F7089558
:100B50002A00E0AC8F033000E0AC8F032B01E0AC47
:100B60008F030AFFFFFFFFFF0BFFFFFFFFFF10FFD9
:040B7000FFFFFFFF85
:100B74002091163F211109C021E02093163FE0E2A5
:0E0B8400F8E08083918381E0089580E0089579
:100B920081E080931B3F2FE38DE093E02150804062
:0A0BA2009040E1F700C00000089544
:100BAC00E0E2F8E081E38083118212821092163F1A
:060BBC00138280E00895A1
:100BC20040E068ED80E191E054D0E0E1F1E0128292
:060BD200138280E008958B
:100BD80040E068ED80E890E049D0E0E8F0E0118678
:060BE800108680E0089574
:100BEE00E82FF0E0EE0FFF1FE050F14C8081918175
:040BFE00BADF0895BD
:0E0C020040E068ED80E590E034D080E0089599
:0E0C1000E9DDE2DFF6DF42DFC9DFD3DF089562
:0E0C1E00EC014BD049D0CE0149D0CE0148D0D8
:0C0C2C008F9381E080938A008F911895CF
:0A0C38008093123F9093133F08953C
:0A0C42008093103F9093113F089536
:0A0C4C0080930C3F90930D3F089534
:0A0C560080930A3F90930B3F08952E
:0A0C60008093083F9093093F089528
:0A0C6A008093043F9093053F089526
:080C7400FC0164BF40830895F8
:080C7C0081E080931A3F089506
:080C840081E08093193F0895FF
:080C8C0081E08093183F0895F8
:080C940081E08093173F0895F1
:060C9C001092163F0895BE
:020CA200AEC9D9
:020CA4000895B1
:020CA6000895AF
:020CA8000895AD
:020CAA000895AB
:020CAC000895A9
:020CAE000895A7
:020CB0000895A5
:020CB2000895A3
:020CB4000895A1
:020CB60008959F
:020CB80008959D
:020CBA0008959B
:020CBC00EDD970
:020CBE00310003
:020CC000010031
:02000004008278
:090000000000020000C40700002A
:00000001FF
